:1000000049C000004FC000004DC000004BC00000C0
:1000100049C0000047C0000045C0000043C00000C8
:1000200041C000003FC000003DC000003BC00000D8
:1000300039C0000037C0000035C0000033C00000E8
:1000400031C000002FC000002DC000002BC00000F8
:1000500029C0000027C0000025C0000023C0000008
:1000600021C000001FC000001DC000001BC0000018
:1000700019C0000017C0000015C0000013C0000028
:1000800011C000000FC000000DC000000BC0000038
:1000900009C0000011241FBECFEFD0E1DEBFCDBFED
:1000A00022D07EC0ADCFCF93DF93CDB7DEB784E251
:1000B00090E024E230E0F90120812068FC012083F7
:1000C00087E290E027E0FC01208383E390E023E3D4
:1000D00030E0F90120812360FC01208380E090E082
:1000E000DF91CF910895CF93DF931F92CDB7DEB705
:1000F000DADF898386E290E0FC018081898389814F
:10010000887F8983898188231CF48981846089831D
:100110008981882F90E080749927892B19F0898133
:10012000826089838981882F90E080729927892B4A
:1001300019F089818160898388E290E029812770A4
:10014000FC0120838981887F89838981882F90E0C1
:1001500080719927892B19F089818260898389812F
:10016000882F90E088709927892B19F08981816008
:10017000898389818370898384E390E024E330E07C
:10018000F90120812C7FFC01208384E390E024E3AB
:1001900030E0F90130812981232BFC012083AACF93
:0401A000F894FFCF01
:00000001FF
